:03000000020314E4
:0C031400787FE4F6D8FD75816502035B7C
:1003A000020A0000020800001254000000000000D1
:1003B000000000000000000000000000120C00011E
:1003C0000002000300060008000700040005000901
:1003D000121E0001000400070008000600030002CE
:1003E00000050009123000010005000900060003A5
:1003F0000002000400070008124200010005000985
:0C040000000800070004000200030006D2
:04040D007F327E00BC
:10041100E4FDFCC3ED9FEE6480F8EC648098501518
:10042100E4FBFA0BBB00010ABA03F8BBE8F50DBD0A
:0504310000010C80DE5B
:0104360022A3
:050444008E0A8F0B225F
:0D043700E4F580C2A0759001D2A1D2A222EE
:10000300E4FFFEFDFCFBFAF582F583E5096409458F
:100013000860030201D5E555650D7004E554650CD0
:100023007053E557650F7004E556650E7047E55943
:10003300B51142E558B5103DE55BB51338E55AB542
:100043001233E55DB5152EE55CB51429E55FB517EB
:1000530024E55EB5161FE561B5191AE560B51815F7
:10006300E563B51B10E562B51A0BE565B51D06E53D
:1000730064B51C010FE555651F7004E554651E70DA
:1000830056E55765217004E5566520704AE559B574
:100093002345E558B52240E55BB5253BE55AB52434
:1000A30036E55DB52731E55CB5262CE55FB5292737
:1000B300E55EB52822E561B52B1DE560B52A18E597
:1000C30063B52D13E562B52C0EE565B52F09E5641F
:1000D300B52E047C007D01E55565317004E554655A
:1000E300307056E55765337004E5566532704AE55E
:1000F30059B53545E558B53440E55BB5373BE55A69
:10010300B53636E55DB53931E55CB5382CE55FB517
:100113003B27E55EB53A22E561B53D1DE560B53C9B
:1001230018E563B53F13E562B53E0EE565B54109D4
:10013300E564B540047A007B01E55565437004E549
:100143005465427055E55765457004E5566544703E
:1001530049E559B54744E558B5463FE55BB5493AE6
:10016300E55AB54835E55DB54B30E55CB54A2BE559
:100173005FB54D26E55EB54C21E561B54F1CE560E5
:10018300B54E17E563B55112E562B5500DE565B59A
:100193005308E564B55203900001EF64014E601407
:1001A300ED64014C600EEB64014A6008E582640172
:1001B30045837003C2A222E4F508F509D290D291D7
:1001C300D292D293D294D295D296D297D2A1F583DA
:0201D300F582B3
:0101D5002207
:1001D60012043730801F12040D208019E50925E02E
:1001E6002454F87600087601C2901200030509E54A
:1001F600097002050830811F12040D208119E509D6
:1002060025E02454F87600087602C2911200030510
:1002160009E5097002050830821F12040D208219B3
:10022600E50925E02454F87600087603C292120008
:10023600030509E5097002050830831F12040D2025
:100246008319E50925E02454F87600087604C2935C
:100256001200030509E5097002050830841F12041F
:100266000D208419E50925E02454F8760008760562
:10027600C2941200030509E5097002050830851FBE
:1002860012040D208519E50925E02454F8760008A6
:100296007606C2951200030509E5097002050830C5
:1002A600861F12040D208619E50925E02454F876E8
:1002B60000087607C2961200030509E509700205D3
:1002C6000830871F12040D208719E50925E02454FC
:1002D600F87600087608C2971200030509E509704A
:1002E60002050820A0030201D912040D30A0030262
:1002F60001D9E50925E02454F87600087609C2A15B
:0E0306001200030509E509700205080201D97D
:100320000201D6E493A3F8E493A34003F68001F21C
:1003300008DFF48029E493A3F85407240CC8C333DE
:10034000C4540F4420C8834004F456800146F6DFAD
:10035000E4800B01020408102040809003A0E47E9A
:10036000019360BCA3FF543F30E509541FFEE493A2
:10037000A360010ECF54C025E060A840B8E493A369
:10038000FAE493A3F8E493A3C8C582C8CAC583CA94
:10039000F0A3C8C582C8CAC583CADFE9DEE780BE4C
:01040C0000EF
:00000001FF
