:03000000020209F0
:0C020900787FE4F6D8FD758126020250D3
:1004860093E00003000100020002000100020001E7
:10049600000200020001000200020001000100014A
:0804A600000200030004000540
:1004D500021B000002080000021D000002180000B7
:1004E500021600010212000002140000080A0000B2
:0604F50000000000000001
:1004FC00E4FDFCC3ED9FEE6480F8EC64809850152D
:10050C00E4FBFA0BBB00010ABA03F8BBE8F50DBD1E
:05051C0000010C80DE6F
:0105210022B7
:050003008E1B8F1C2282
:1005A400C2AF438920758DFDD28EC29FD29ED2AF39
:0105B4002224
:0C0541007F7E12054D7F0412054D7F41A6
:0E054D00C2ACC2998F993099FDC299D2AC22EE
:10000E00120575FF600C12054D740129F9E43AFAD8
:03001E0080EE224F
:030023000205B51E
:0A05B500C2ACC29885991AD2AC328C
:0A045D00E493FC740193FDE4FFFE3C
:100467008E238F248C258D267F3312013012054170
:0F047700AF2412054DAF2612054D7FEF02054D44
:10013000EF24CF70030201C424FE70030201D72410
:1001400033B409004003020208900150F8282873D4
:1001500002016B02017202018002018D02019A020A
:1001600001A80201B60201EA0201F6120541E4FF0C
:1001700080227F7E12054D7F0212054D1F02020074
:100180007F7E12054D7F0212054D0202007F7E1216
:10019000054D7F0212054D0F80667F7E12054D7F53
:1001A0000212054D7F0480587F7E12054D7F02129A
:1001B000054D7F05804A7F7E12054D7F0212054D59
:1001C0007F06803C7F7E12054D7F0312054D7F31F7
:1001D00012054D7F1480297F7E12054D7F03120585
:1001E0004D7F3312054D7F048016120541E4FF1246
:1001F000054D7F02800A120541E4FF12054D7F0381
:0902000012054D7FEF12054D229D
:10058E007F331201307F31120130C2AC7FE87E031F
:06059E001204FCD2AC22A5
:1004AE00C280D2A7D281D282D283D284D291D2926A
:1004BE00D293D294D285C2B7D2B2C2A4C2A5D2A6CA
:0704CE00C2B4C2B5D2B62290
:100432001204AE1205A412058E120522C2A97F640F
:100442007E001204FCE51B70FCE51C1460080470BD
:0B045200F412055B80EF12040680EA44
:10055B003080167FD07E071204FCC2A79004A41231
:0A056B00045D7F017E0012000322F0
:1002F700E51964014518701BD281C282C283C2848A
:10030700E5094508703F9004A812045E750800755A
:10031700090122E519640245187009D281D282C207
:1003270083C28422E519640345187009D281D282F9
:10033700D283C28422E519640445187008D281D299
:0603470082D283D2842261
:10034D00E519640145187009209103C28522D285F3
:10035D0022E51964024518700C309103209203C2F6
:10036D008522D28522E51964034518700F30910658
:10037D00309203209303C28522D28522E5196404AD
:10038D004518701130910930920630930320940373
:06039D00C28522D2852278
:10040600D2A912034DE5176401451670051203D5EE
:1004160080F0E51764024516700512002680E3E5B4
:0C042600176403451670DB1203A380D698
:1003D50030B72D7F327E001204FC30B7239004A67F
:1003E500E493FC740193FDE4FF120467900486E432
:1003F50093F51D740193F51EC2B2751600751702AB
:0104050022D4
:10002600E4FFFEE5134512700830A405F5127513BA
:1000360001E5154514700830A505F514751501E59B
:1000460013640145127024E51564014514701CE51E
:1000560013640145127008E5156401451460F0E467
:10006600F512F513F514F515FE7F03E51364014546
:10007600127020E5154514701AE5136401451270D7
:1000860006E515451460F2E4F512F513F514F515B9
:10009600FE7F01E51345127022E5156401451470D3
:1000A6001AE51345127008E5156401451460F2E47B
:1000B600F512F513F514F515FE7F02EF4E606A850D
:1000C6000C0A850D0B850E0C850F0D85100E8511FE
:1000D6000F8E108F11900488740193650B7004E4E1
:1000E60093650A704490048A0493650D7004E49342
:1000F600650C703590048C0493B50F2DE493B50E02
:100106002890048E740193B5111FE493B5101A90CC
:1001160004AA12045D900486E493F51D740193F518
:090126001EC2A675160075170330
:01012F0022AD
:1003A30030B42E30B52B9004AC12045D900486E477
:1003B30093F51D740193F51EC2A9751600751704F4
:1003C3007F027E00120003D281D282D283D284C202
:0203D300B62250
:03000B0002029559
:10029500C0E0C0F0C083C082C0D075D000C000C02F
:1002A50001C002C003C004C005C006C007758ACDE1
:1002B500758CD4E51E151E7002151DE51E451D70B5
:1002C5001690048693F51D740193F51E0519E5191D
:1002D500700205181202F7D007D006D005D004D059
:1002E50003D002D001D000D0D0D082D083D0F0D0BE
:0202F500E032F5
:10052200900486E493F51D740193F51E758E804345
:0F0532008901758ACD758CD4D28CD2A9D2AF2213
:10021500020432E493A3F8E493A34003F68001F2C9
:1002250008DFF48029E493A3F85407240CC8C333EA
:10023500C4540F4420C8834004F456800146F6DFB9
:10024500E4800B01020408102040809004D5E47E70
:10025500019360BCA3FF543F30E509541FFEE493AE
:10026500A360010ECF54C025E060A840B8E493A375
:10027500FAE493A3F8E493A3C8C582C8CAC583CAA0
:10028500F0A3C8C582C8CAC583CADFE9DEE780BE58
:0104FB000000
:10057500BB010689828A83E0225002E722BBFE0284
:09058500E32289828A83E49322B7
:00000001FF
